{
  "contractName": "Logs",
  "abi": [
    {
      "anonymous": false,
      "inputs": [
        {
          "indexed": false,
          "internalType": "string",
          "name": "message",
          "type": "string"
        },
        {
          "indexed": true,
          "internalType": "address",
          "name": "author",
          "type": "address"
        },
        {
          "indexed": false,
          "internalType": "uint256",
          "name": "timestamp",
          "type": "uint256"
        }
      ],
      "name": "LogCreated",
      "type": "event"
    },
    {
      "inputs": [
        {
          "internalType": "string",
          "name": "_message",
          "type": "string"
        }
      ],
      "name": "createLog",
      "outputs": [],
      "stateMutability": "nonpayable",
      "type": "function"
    },
    {
      "inputs": [],
      "name": "getAllLogs",
      "outputs": [
        {
          "components": [
            {
              "internalType": "string",
              "name": "message",
              "type": "string"
            },
            {
              "internalType": "address",
              "name": "author",
              "type": "address"
            },
            {
              "internalType": "uint256",
              "name": "timestamp",
              "type": "uint256"
            }
          ],
          "internalType": "struct Logs.Log[]",
          "name": "",
          "type": "tuple[]"
        }
      ],
      "stateMutability": "view",
      "type": "function",
      "constant": true
    }
  ],
  "bytecode": "0x608060405234801561001057600080fd5b506108c1806100206000396000f3fe608060405234801561001057600080fd5b50600436106100365760003560e01c8063d1eb032b1461003b578063e581329b14610057575b600080fd5b6100556004803603810190610050919061043a565b610075565b005b61005f6101de565b60405161006c9190610633565b60405180910390f35b60008151116100b9576040517f08c379a00000000000000000000000000000000000000000000000000000000081526004016100b090610685565b60405180910390fd5b600060405180606001604052808381526020013373ffffffffffffffffffffffffffffffffffffffff1681526020014281525090506000819080600181540180825580915050600190039060005260206000209060030201600090919091909150600082015181600001908051906020019061013692919061032f565b5060208201518160010160006101000a81548173ffffffffffffffffffffffffffffffffffffffff021916908373ffffffffffffffffffffffffffffffffffffffff1602179055506040820151816002015550503373ffffffffffffffffffffffffffffffffffffffff167f581c0c20f0cad4dd6e9e69b6affa72b83b3d866abbf76d3101d875ae26e8ded283426040516101d2929190610655565b60405180910390a25050565b60606000805480602002602001604051908101604052809291908181526020016000905b828210156103265783829060005260206000209060030201604051806060016040529081600082018054610235906107ea565b80601f0160208091040260200160405190810160405280929190818152602001828054610261906107ea565b80156102ae5780601f10610283576101008083540402835291602001916102ae565b820191906000526020600020905b81548152906001019060200180831161029157829003601f168201915b505050505081526020016001820160009054906101000a900473ffffffffffffffffffffffffffffffffffffffff1673ffffffffffffffffffffffffffffffffffffffff1673ffffffffffffffffffffffffffffffffffffffff16815260200160028201548152505081526020019060010190610202565b50505050905090565b82805461033b906107ea565b90600052602060002090601f01602090048101928261035d57600085556103a4565b82601f1061037657805160ff19168380011785556103a4565b828001600101855582156103a4579182015b828111156103a3578251825591602001919060010190610388565b5b5090506103b191906103b5565b5090565b5b808211156103ce5760008160009055506001016103b6565b5090565b60006103e56103e0846106d6565b6106a5565b9050828152602081018484840111156103fd57600080fd5b6104088482856107a8565b509392505050565b600082601f83011261042157600080fd5b81356104318482602086016103d2565b91505092915050565b60006020828403121561044c57600080fd5b600082013567ffffffffffffffff81111561046657600080fd5b61047284828501610410565b91505092915050565b600061048783836105c5565b905092915050565b6104988161076c565b82525050565b60006104a982610716565b6104b38185610739565b9350836020820285016104c585610706565b8060005b8581101561050157848403895281516104e2858261047b565b94506104ed8361072c565b925060208a019950506001810190506104c9565b50829750879550505050505092915050565b600061051e82610721565b610528818561074a565b93506105388185602086016107b7565b6105418161087a565b840191505092915050565b600061055782610721565b610561818561075b565b93506105718185602086016107b7565b61057a8161087a565b840191505092915050565b600061059260178361075b565b91507f4d6573736167652063616e6e6f7420626520656d7074790000000000000000006000830152602082019050919050565b600060608301600083015184820360008601526105e28282610513565b91505060208301516105f7602086018261048f565b50604083015161060a6040860182610615565b508091505092915050565b61061e8161079e565b82525050565b61062d8161079e565b82525050565b6000602082019050818103600083015261064d818461049e565b905092915050565b6000604082019050818103600083015261066f818561054c565b905061067e6020830184610624565b9392505050565b6000602082019050818103600083015261069e81610585565b9050919050565b6000604051905081810181811067ffffffffffffffff821117156106cc576106cb61084b565b5b8060405250919050565b600067ffffffffffffffff8211156106f1576106f061084b565b5b601f19601f8301169050602081019050919050565b6000819050602082019050919050565b600081519050919050565b600081519050919050565b6000602082019050919050565b600082825260208201905092915050565b600082825260208201905092915050565b600082825260208201905092915050565b60006107778261077e565b9050919050565b600073ffffffffffffffffffffffffffffffffffffffff82169050919050565b6000819050919050565b82818337600083830152505050565b60005b838110156107d55780820151818401526020810190506107ba565b838111156107e4576000848401525b50505050565b6000600282049050600182168061080257607f821691505b602082108114156108165761081561081c565b5b50919050565b7f4e487b7100000000000000000000000000000000000000000000000000000000600052602260045260246000fd5b7f4e487b7100000000000000000000000000000000000000000000000000000000600052604160045260246000fd5b6000601f19601f830116905091905056fea264697066735822122072a9ff13c7c1493343b82b7c721c4ec7ad0887c26234153246bd24a5d5956fc264736f6c63430008000033",
  "immutableReferences": {},
  "source": "// SPDX-License-Identifier: MIT\r\npragma solidity ^0.8.0;\r\n\r\ncontract Logs {\r\n    // Structure pour stocker un log avec son auteur et un timestamp\r\n    struct Log {\r\n        string message;\r\n        address author;\r\n        uint256 timestamp;\r\n    }\r\n\r\n    Log[] private logs; // Tableau pour stocker les logs\r\n\r\n    // vnement pour notifier lorsqu'un log est cr\r\n    event LogCreated(string message, address indexed author, uint256 timestamp);\r\n\r\n    // Fonction pour crer un nouveau log\r\n    function createLog(string memory _message) public {\r\n        require(bytes(_message).length > 0, \"Message cannot be empty\");\r\n\r\n        Log memory newLog = Log({\r\n            message: _message,\r\n            author: msg.sender, // Adresse de l'expditeur\r\n            timestamp: block.timestamp // Timestamp actuel\r\n        });\r\n\r\n        logs.push(newLog); // Ajoute le log au tableau\r\n\r\n        emit LogCreated(_message, msg.sender, block.timestamp);\r\n    }\r\n\r\n    // Fonction pour rcuprer tous les logs\r\n    function getAllLogs() public view returns (Log[] memory) {\r\n        return logs;\r\n    }\r\n}\r\n",
  "sourcePath": "C:\\Users\\maxim\\Desktop\\UTT\\Master\\GS16\\blochchain_project\\contracts\\Logs.sol",
  "compiler": {
    "name": "solc",
    "version": "0.8.0+commit.c7dfd78e.Emscripten.clang"
  },
  "schemaVersion": "3.4.16",
  "updatedAt": "2024-11-19T23:09:37.746Z",
  "networkType": "ethereum",
  "devdoc": {
    "kind": "dev",
    "methods": {},
    "version": 1
  },
  "userdoc": {
    "kind": "user",
    "methods": {},
    "version": 1
  }
}