{
  "contractName": "Logs",
  "abi": [
    {
      "anonymous": false,
      "inputs": [
        {
          "indexed": false,
          "internalType": "uint256",
          "name": "id",
          "type": "uint256"
        },
        {
          "indexed": false,
          "internalType": "string",
          "name": "message",
          "type": "string"
        },
        {
          "indexed": true,
          "internalType": "address",
          "name": "author",
          "type": "address"
        },
        {
          "indexed": false,
          "internalType": "uint256",
          "name": "timestamp",
          "type": "uint256"
        }
      ],
      "name": "LogCreated",
      "type": "event"
    },
    {
      "anonymous": false,
      "inputs": [
        {
          "indexed": false,
          "internalType": "uint256",
          "name": "id",
          "type": "uint256"
        },
        {
          "indexed": false,
          "internalType": "string",
          "name": "oldMessage",
          "type": "string"
        },
        {
          "indexed": false,
          "internalType": "string",
          "name": "newMessage",
          "type": "string"
        },
        {
          "indexed": false,
          "internalType": "uint256",
          "name": "newTimestamp",
          "type": "uint256"
        }
      ],
      "name": "LogUpdated",
      "type": "event"
    },
    {
      "inputs": [
        {
          "internalType": "uint256",
          "name": "",
          "type": "uint256"
        }
      ],
      "name": "logs",
      "outputs": [
        {
          "internalType": "string",
          "name": "message",
          "type": "string"
        },
        {
          "internalType": "address",
          "name": "author",
          "type": "address"
        },
        {
          "internalType": "uint256",
          "name": "timestamp",
          "type": "uint256"
        }
      ],
      "stateMutability": "view",
      "type": "function",
      "constant": true
    },
    {
      "inputs": [
        {
          "internalType": "string",
          "name": "_message",
          "type": "string"
        }
      ],
      "name": "createLog",
      "outputs": [],
      "stateMutability": "nonpayable",
      "type": "function"
    },
    {
      "inputs": [],
      "name": "getAllLogs",
      "outputs": [
        {
          "components": [
            {
              "internalType": "string",
              "name": "message",
              "type": "string"
            },
            {
              "internalType": "address",
              "name": "author",
              "type": "address"
            },
            {
              "internalType": "uint256",
              "name": "timestamp",
              "type": "uint256"
            }
          ],
          "internalType": "struct Logs.Log[]",
          "name": "",
          "type": "tuple[]"
        }
      ],
      "stateMutability": "view",
      "type": "function",
      "constant": true
    },
    {
      "inputs": [
        {
          "internalType": "uint256",
          "name": "_logId",
          "type": "uint256"
        },
        {
          "internalType": "string",
          "name": "_newMessage",
          "type": "string"
        }
      ],
      "name": "updateLog",
      "outputs": [],
      "stateMutability": "nonpayable",
      "type": "function"
    }
  ],
  "bytecode": "0x608060405234801561001057600080fd5b50611047806100206000396000f3fe608060405234801561001057600080fd5b506004361061004c5760003560e01c8063d1eb032b14610051578063d3aa484f1461006d578063e581329b14610089578063e79899bd146100a7575b600080fd5b61006b600480360381019061006691906108d5565b6100d9565b005b6100876004803603810190610082919061093f565b61024f565b005b610091610582565b60405161009e9190610c40565b60405180910390f35b6100c160048036038101906100bc9190610916565b6106d3565b6040516100d093929190610c62565b60405180910390f35b600081511161011d576040517f08c379a000000000000000000000000000000000000000000000000000000000815260040161011490610ca0565b60405180910390fd5b600060405180606001604052808381526020013373ffffffffffffffffffffffffffffffffffffffff16815260200142815250908060018154018082558091505060019003906000526020600020906003020160009091909190915060008201518160000190805190602001906101959291906107b5565b5060208201518160010160006101000a81548173ffffffffffffffffffffffffffffffffffffffff021916908373ffffffffffffffffffffffffffffffffffffffff1602179055506040820151816002015550503373ffffffffffffffffffffffffffffffffffffffff167f17acf47b84e87fd6f777478f2940c99f7a552b88f433a2e4ebaa3c59221118dc60016000805490506102339190610e78565b834260405161024493929190610d73565b60405180910390a250565b6000805490508210610296576040517f08c379a000000000000000000000000000000000000000000000000000000000815260040161028d90610d00565b60405180910390fd5b600082815481106102d0577f4e487b7100000000000000000000000000000000000000000000000000000000600052603260045260246000fd5b906000526020600020906003020160010160009054906101000a900473ffffffffffffffffffffffffffffffffffffffff1673ffffffffffffffffffffffffffffffffffffffff163373ffffffffffffffffffffffffffffffffffffffff161461036f576040517f08c379a000000000000000000000000000000000000000000000000000000000815260040161036690610cc0565b60405180910390fd5b60008151116103b3576040517f08c379a00000000000000000000000000000000000000000000000000000000081526004016103aa90610ce0565b60405180910390fd5b60008083815481106103ee577f4e487b7100000000000000000000000000000000000000000000000000000000600052603260045260246000fd5b9060005260206000209060030201600001805461040a90610f2a565b80601f016020809104026020016040519081016040528092919081815260200182805461043690610f2a565b80156104835780601f1061045857610100808354040283529160200191610483565b820191906000526020600020905b81548152906001019060200180831161046657829003601f168201915b50505050509050600042905082600085815481106104ca577f4e487b7100000000000000000000000000000000000000000000000000000000600052603260045260246000fd5b906000526020600020906003020160000190805190602001906104ee9291906107b5565b50806000858154811061052a577f4e487b7100000000000000000000000000000000000000000000000000000000600052603260045260246000fd5b9060005260206000209060030201600201819055507f6908f75696f145cd4a10d851e5cd2517b350f4cc5e9d90ad8bf4b0d2d4210552848385846040516105749493929190610d20565b60405180910390a150505050565b60606000805480602002602001604051908101604052809291908181526020016000905b828210156106ca57838290600052602060002090600302016040518060600160405290816000820180546105d990610f2a565b80601f016020809104026020016040519081016040528092919081815260200182805461060590610f2a565b80156106525780601f1061062757610100808354040283529160200191610652565b820191906000526020600020905b81548152906001019060200180831161063557829003601f168201915b505050505081526020016001820160009054906101000a900473ffffffffffffffffffffffffffffffffffffffff1673ffffffffffffffffffffffffffffffffffffffff1673ffffffffffffffffffffffffffffffffffffffff168152602001600282015481525050815260200190600101906105a6565b50505050905090565b600081815481106106e357600080fd5b906000526020600020906003020160009150905080600001805461070690610f2a565b80601f016020809104026020016040519081016040528092919081815260200182805461073290610f2a565b801561077f5780601f106107545761010080835404028352916020019161077f565b820191906000526020600020905b81548152906001019060200180831161076257829003601f168201915b5050505050908060010160009054906101000a900473ffffffffffffffffffffffffffffffffffffffff16908060020154905083565b8280546107c190610f2a565b90600052602060002090601f0160209004810192826107e3576000855561082a565b82601f106107fc57805160ff191683800117855561082a565b8280016001018555821561082a579182015b8281111561082957825182559160200191906001019061080e565b5b509050610837919061083b565b5090565b5b8082111561085457600081600090555060010161083c565b5090565b600061086b61086684610de2565b610db1565b90508281526020810184848401111561088357600080fd5b61088e848285610ee8565b509392505050565b600082601f8301126108a757600080fd5b81356108b7848260208601610858565b91505092915050565b6000813590506108cf81610ffa565b92915050565b6000602082840312156108e757600080fd5b600082013567ffffffffffffffff81111561090157600080fd5b61090d84828501610896565b91505092915050565b60006020828403121561092857600080fd5b6000610936848285016108c0565b91505092915050565b6000806040838503121561095257600080fd5b6000610960858286016108c0565b925050602083013567ffffffffffffffff81111561097d57600080fd5b61098985828601610896565b9150509250929050565b600061099f8383610bd2565b905092915050565b6109b081610eac565b82525050565b6109bf81610eac565b82525050565b60006109d082610e22565b6109da8185610e45565b9350836020820285016109ec85610e12565b8060005b85811015610a285784840389528151610a098582610993565b9450610a1483610e38565b925060208a019950506001810190506109f0565b50829750879550505050505092915050565b6000610a4582610e2d565b610a4f8185610e56565b9350610a5f818560208601610ef7565b610a6881610fe9565b840191505092915050565b6000610a7e82610e2d565b610a888185610e67565b9350610a98818560208601610ef7565b610aa181610fe9565b840191505092915050565b6000610ab9601783610e67565b91507f4d6573736167652063616e6e6f7420626520656d7074790000000000000000006000830152602082019050919050565b6000610af9602383610e67565b91507f4f6e6c792074686520617574686f722063616e206d6f6469667920746869732060008301527f6c6f6700000000000000000000000000000000000000000000000000000000006020830152604082019050919050565b6000610b5f601b83610e67565b91507f4e6577206d6573736167652063616e6e6f7420626520656d70747900000000006000830152602082019050919050565b6000610b9f601283610e67565b91507f4c6f6720646f6573206e6f7420657869737400000000000000000000000000006000830152602082019050919050565b60006060830160008301518482036000860152610bef8282610a3a565b9150506020830151610c0460208601826109a7565b506040830151610c176040860182610c22565b508091505092915050565b610c2b81610ede565b82525050565b610c3a81610ede565b82525050565b60006020820190508181036000830152610c5a81846109c5565b905092915050565b60006060820190508181036000830152610c7c8186610a73565b9050610c8b60208301856109b6565b610c986040830184610c31565b949350505050565b60006020820190508181036000830152610cb981610aac565b9050919050565b60006020820190508181036000830152610cd981610aec565b9050919050565b60006020820190508181036000830152610cf981610b52565b9050919050565b60006020820190508181036000830152610d1981610b92565b9050919050565b6000608082019050610d356000830187610c31565b8181036020830152610d478186610a73565b90508181036040830152610d5b8185610a73565b9050610d6a6060830184610c31565b95945050505050565b6000606082019050610d886000830186610c31565b8181036020830152610d9a8185610a73565b9050610da96040830184610c31565b949350505050565b6000604051905081810181811067ffffffffffffffff82111715610dd857610dd7610fba565b5b8060405250919050565b600067ffffffffffffffff821115610dfd57610dfc610fba565b5b601f19601f8301169050602081019050919050565b6000819050602082019050919050565b600081519050919050565b600081519050919050565b6000602082019050919050565b600082825260208201905092915050565b600082825260208201905092915050565b600082825260208201905092915050565b6000610e8382610ede565b9150610e8e83610ede565b925082821015610ea157610ea0610f5c565b5b828203905092915050565b6000610eb782610ebe565b9050919050565b600073ffffffffffffffffffffffffffffffffffffffff82169050919050565b6000819050919050565b82818337600083830152505050565b60005b83811015610f15578082015181840152602081019050610efa565b83811115610f24576000848401525b50505050565b60006002820490506001821680610f4257607f821691505b60208210811415610f5657610f55610f8b565b5b50919050565b7f4e487b7100000000000000000000000000000000000000000000000000000000600052601160045260246000fd5b7f4e487b7100000000000000000000000000000000000000000000000000000000600052602260045260246000fd5b7f4e487b7100000000000000000000000000000000000000000000000000000000600052604160045260246000fd5b6000601f19601f8301169050919050565b61100381610ede565b811461100e57600080fd5b5056fea26469706673582212205a46bbaa898680279eca23bd943f07db5ab48a129d7a906dccc8c1f9be94911b64736f6c63430008000033",
  "immutableReferences": {},
  "source": "// SPDX-License-Identifier: MIT\r\npragma solidity ^0.8.0;\r\n\r\ncontract Logs {\r\n    struct Log {\r\n        string message;\r\n        address author;\r\n        uint256 timestamp;\r\n    }\r\n\r\n    Log[] public logs;\r\n\r\n    event LogCreated(uint256 id, string message, address indexed author, uint256 timestamp);\r\n    event LogUpdated(uint256 id, string oldMessage, string newMessage, uint256 newTimestamp);\r\n\r\n    // Fonction pour crer un log\r\n    function createLog(string memory _message) public {\r\n        require(bytes(_message).length > 0, \"Message cannot be empty\");\r\n        logs.push(Log(_message, msg.sender, block.timestamp));\r\n        emit LogCreated(logs.length - 1, _message, msg.sender, block.timestamp);\r\n    }\r\n\r\n    // Fonction pour rcuprer tous les logs\r\n    function getAllLogs() public view returns (Log[] memory) {\r\n        return logs;\r\n    }\r\n\r\n    // Fonction pour modifier un log existant\r\n    function updateLog(uint256 _logId, string memory _newMessage) public {\r\n        require(_logId < logs.length, \"Log does not exist\");\r\n        require(msg.sender == logs[_logId].author, \"Only the author can modify this log\");\r\n        require(bytes(_newMessage).length > 0, \"New message cannot be empty\");\r\n\r\n        string memory oldMessage = logs[_logId].message;\r\n        uint256 newTimestamp = block.timestamp; // Mettre  jour le timestamp lors de la modification\r\n        logs[_logId].message = _newMessage;\r\n        logs[_logId].timestamp = newTimestamp;\r\n\r\n        emit LogUpdated(_logId, oldMessage, _newMessage, newTimestamp); // mettre un vnement avec le nouveau timestamp\r\n    }\r\n}\r\n",
  "sourcePath": "C:\\Users\\maxim\\Desktop\\UTT\\Master\\GS16\\blockchain_project\\contracts\\Logs.sol",
  "compiler": {
    "name": "solc",
    "version": "0.8.0+commit.c7dfd78e.Emscripten.clang"
  },
  "schemaVersion": "3.4.16",
  "updatedAt": "2024-12-02T23:05:45.548Z",
  "networkType": "ethereum",
  "devdoc": {
    "kind": "dev",
    "methods": {},
    "version": 1
  },
  "userdoc": {
    "kind": "user",
    "methods": {},
    "version": 1
  }
}