{
  "contractName": "Logs",
  "abi": [
    {
      "anonymous": false,
      "inputs": [
        {
          "indexed": false,
          "internalType": "uint256",
          "name": "id",
          "type": "uint256"
        },
        {
          "indexed": false,
          "internalType": "string",
          "name": "message",
          "type": "string"
        },
        {
          "indexed": true,
          "internalType": "address",
          "name": "author",
          "type": "address"
        },
        {
          "indexed": false,
          "internalType": "uint256",
          "name": "timestamp",
          "type": "uint256"
        }
      ],
      "name": "LogCreated",
      "type": "event"
    },
    {
      "anonymous": false,
      "inputs": [
        {
          "indexed": false,
          "internalType": "uint256",
          "name": "id",
          "type": "uint256"
        },
        {
          "indexed": false,
          "internalType": "string",
          "name": "oldMessage",
          "type": "string"
        },
        {
          "indexed": false,
          "internalType": "string",
          "name": "newMessage",
          "type": "string"
        }
      ],
      "name": "LogUpdated",
      "type": "event"
    },
    {
      "inputs": [
        {
          "internalType": "uint256",
          "name": "",
          "type": "uint256"
        }
      ],
      "name": "logs",
      "outputs": [
        {
          "internalType": "string",
          "name": "message",
          "type": "string"
        },
        {
          "internalType": "address",
          "name": "author",
          "type": "address"
        },
        {
          "internalType": "uint256",
          "name": "timestamp",
          "type": "uint256"
        }
      ],
      "stateMutability": "view",
      "type": "function",
      "constant": true
    },
    {
      "inputs": [
        {
          "internalType": "string",
          "name": "_message",
          "type": "string"
        }
      ],
      "name": "createLog",
      "outputs": [],
      "stateMutability": "nonpayable",
      "type": "function"
    },
    {
      "inputs": [],
      "name": "getAllLogs",
      "outputs": [
        {
          "components": [
            {
              "internalType": "string",
              "name": "message",
              "type": "string"
            },
            {
              "internalType": "address",
              "name": "author",
              "type": "address"
            },
            {
              "internalType": "uint256",
              "name": "timestamp",
              "type": "uint256"
            }
          ],
          "internalType": "struct Logs.Log[]",
          "name": "",
          "type": "tuple[]"
        }
      ],
      "stateMutability": "view",
      "type": "function",
      "constant": true
    },
    {
      "inputs": [
        {
          "internalType": "uint256",
          "name": "_logId",
          "type": "uint256"
        },
        {
          "internalType": "string",
          "name": "_newMessage",
          "type": "string"
        }
      ],
      "name": "updateLog",
      "outputs": [],
      "stateMutability": "nonpayable",
      "type": "function"
    }
  ],
  "bytecode": "0x608060405234801561001057600080fd5b50610fe1806100206000396000f3fe608060405234801561001057600080fd5b506004361061004c5760003560e01c8063d1eb032b14610051578063d3aa484f1461006d578063e581329b14610089578063e79899bd146100a7575b600080fd5b61006b6004803603810190610066919061087d565b6100d9565b005b610087600480360381019061008291906108e7565b61024f565b005b61009161052a565b60405161009e9190610be8565b60405180910390f35b6100c160048036038101906100bc91906108be565b61067b565b6040516100d093929190610c0a565b60405180910390f35b600081511161011d576040517f08c379a000000000000000000000000000000000000000000000000000000000815260040161011490610c48565b60405180910390fd5b600060405180606001604052808381526020013373ffffffffffffffffffffffffffffffffffffffff168152602001428152509080600181540180825580915050600190039060005260206000209060030201600090919091909150600082015181600001908051906020019061019592919061075d565b5060208201518160010160006101000a81548173ffffffffffffffffffffffffffffffffffffffff021916908373ffffffffffffffffffffffffffffffffffffffff1602179055506040820151816002015550503373ffffffffffffffffffffffffffffffffffffffff167f17acf47b84e87fd6f777478f2940c99f7a552b88f433a2e4ebaa3c59221118dc60016000805490506102339190610e12565b834260405161024493929190610d0d565b60405180910390a250565b6000805490508210610296576040517f08c379a000000000000000000000000000000000000000000000000000000000815260040161028d90610ca8565b60405180910390fd5b600082815481106102d0577f4e487b7100000000000000000000000000000000000000000000000000000000600052603260045260246000fd5b906000526020600020906003020160010160009054906101000a900473ffffffffffffffffffffffffffffffffffffffff1673ffffffffffffffffffffffffffffffffffffffff163373ffffffffffffffffffffffffffffffffffffffff161461036f576040517f08c379a000000000000000000000000000000000000000000000000000000000815260040161036690610c68565b60405180910390fd5b60008151116103b3576040517f08c379a00000000000000000000000000000000000000000000000000000000081526004016103aa90610c88565b60405180910390fd5b60008083815481106103ee577f4e487b7100000000000000000000000000000000000000000000000000000000600052603260045260246000fd5b9060005260206000209060030201600001805461040a90610ec4565b80601f016020809104026020016040519081016040528092919081815260200182805461043690610ec4565b80156104835780601f1061045857610100808354040283529160200191610483565b820191906000526020600020905b81548152906001019060200180831161046657829003601f168201915b5050505050905081600084815481106104c5577f4e487b7100000000000000000000000000000000000000000000000000000000600052603260045260246000fd5b906000526020600020906003020160000190805190602001906104e992919061075d565b507f6f5621cf278f24f3264f2247a051b238433944ba7a3826fdaceef64c525721c483828460405161051d93929190610cc8565b60405180910390a1505050565b60606000805480602002602001604051908101604052809291908181526020016000905b82821015610672578382906000526020600020906003020160405180606001604052908160008201805461058190610ec4565b80601f01602080910402602001604051908101604052809291908181526020018280546105ad90610ec4565b80156105fa5780601f106105cf576101008083540402835291602001916105fa565b820191906000526020600020905b8154815290600101906020018083116105dd57829003601f168201915b505050505081526020016001820160009054906101000a900473ffffffffffffffffffffffffffffffffffffffff1673ffffffffffffffffffffffffffffffffffffffff1673ffffffffffffffffffffffffffffffffffffffff1681526020016002820154815250508152602001906001019061054e565b50505050905090565b6000818154811061068b57600080fd5b90600052602060002090600302016000915090508060000180546106ae90610ec4565b80601f01602080910402602001604051908101604052809291908181526020018280546106da90610ec4565b80156107275780601f106106fc57610100808354040283529160200191610727565b820191906000526020600020905b81548152906001019060200180831161070a57829003601f168201915b5050505050908060010160009054906101000a900473ffffffffffffffffffffffffffffffffffffffff16908060020154905083565b82805461076990610ec4565b90600052602060002090601f01602090048101928261078b57600085556107d2565b82601f106107a457805160ff19168380011785556107d2565b828001600101855582156107d2579182015b828111156107d15782518255916020019190600101906107b6565b5b5090506107df91906107e3565b5090565b5b808211156107fc5760008160009055506001016107e4565b5090565b600061081361080e84610d7c565b610d4b565b90508281526020810184848401111561082b57600080fd5b610836848285610e82565b509392505050565b600082601f83011261084f57600080fd5b813561085f848260208601610800565b91505092915050565b60008135905061087781610f94565b92915050565b60006020828403121561088f57600080fd5b600082013567ffffffffffffffff8111156108a957600080fd5b6108b58482850161083e565b91505092915050565b6000602082840312156108d057600080fd5b60006108de84828501610868565b91505092915050565b600080604083850312156108fa57600080fd5b600061090885828601610868565b925050602083013567ffffffffffffffff81111561092557600080fd5b6109318582860161083e565b9150509250929050565b60006109478383610b7a565b905092915050565b61095881610e46565b82525050565b61096781610e46565b82525050565b600061097882610dbc565b6109828185610ddf565b93508360208202850161099485610dac565b8060005b858110156109d057848403895281516109b1858261093b565b94506109bc83610dd2565b925060208a01995050600181019050610998565b50829750879550505050505092915050565b60006109ed82610dc7565b6109f78185610df0565b9350610a07818560208601610e91565b610a1081610f83565b840191505092915050565b6000610a2682610dc7565b610a308185610e01565b9350610a40818560208601610e91565b610a4981610f83565b840191505092915050565b6000610a61601783610e01565b91507f4d6573736167652063616e6e6f7420626520656d7074790000000000000000006000830152602082019050919050565b6000610aa1602383610e01565b91507f4f6e6c792074686520617574686f722063616e206d6f6469667920746869732060008301527f6c6f6700000000000000000000000000000000000000000000000000000000006020830152604082019050919050565b6000610b07601b83610e01565b91507f4e6577206d6573736167652063616e6e6f7420626520656d70747900000000006000830152602082019050919050565b6000610b47601283610e01565b91507f4c6f6720646f6573206e6f7420657869737400000000000000000000000000006000830152602082019050919050565b60006060830160008301518482036000860152610b9782826109e2565b9150506020830151610bac602086018261094f565b506040830151610bbf6040860182610bca565b508091505092915050565b610bd381610e78565b82525050565b610be281610e78565b82525050565b60006020820190508181036000830152610c02818461096d565b905092915050565b60006060820190508181036000830152610c248186610a1b565b9050610c33602083018561095e565b610c406040830184610bd9565b949350505050565b60006020820190508181036000830152610c6181610a54565b9050919050565b60006020820190508181036000830152610c8181610a94565b9050919050565b60006020820190508181036000830152610ca181610afa565b9050919050565b60006020820190508181036000830152610cc181610b3a565b9050919050565b6000606082019050610cdd6000830186610bd9565b8181036020830152610cef8185610a1b565b90508181036040830152610d038184610a1b565b9050949350505050565b6000606082019050610d226000830186610bd9565b8181036020830152610d348185610a1b565b9050610d436040830184610bd9565b949350505050565b6000604051905081810181811067ffffffffffffffff82111715610d7257610d71610f54565b5b8060405250919050565b600067ffffffffffffffff821115610d9757610d96610f54565b5b601f19601f8301169050602081019050919050565b6000819050602082019050919050565b600081519050919050565b600081519050919050565b6000602082019050919050565b600082825260208201905092915050565b600082825260208201905092915050565b600082825260208201905092915050565b6000610e1d82610e78565b9150610e2883610e78565b925082821015610e3b57610e3a610ef6565b5b828203905092915050565b6000610e5182610e58565b9050919050565b600073ffffffffffffffffffffffffffffffffffffffff82169050919050565b6000819050919050565b82818337600083830152505050565b60005b83811015610eaf578082015181840152602081019050610e94565b83811115610ebe576000848401525b50505050565b60006002820490506001821680610edc57607f821691505b60208210811415610ef057610eef610f25565b5b50919050565b7f4e487b7100000000000000000000000000000000000000000000000000000000600052601160045260246000fd5b7f4e487b7100000000000000000000000000000000000000000000000000000000600052602260045260246000fd5b7f4e487b7100000000000000000000000000000000000000000000000000000000600052604160045260246000fd5b6000601f19601f8301169050919050565b610f9d81610e78565b8114610fa857600080fd5b5056fea26469706673582212206247a7953bd48fd014ac800cee0c828c295e43c830fd2cdcf1a19d0b5b4a105064736f6c63430008000033",
  "immutableReferences": {},
  "source": "// SPDX-License-Identifier: MIT\r\npragma solidity ^0.8.0;\r\n\r\ncontract Logs {\r\n    struct Log {\r\n        string message;\r\n        address author;\r\n        uint256 timestamp;\r\n    }\r\n\r\n    Log[] public logs;\r\n\r\n    event LogCreated(uint256 id, string message, address indexed author, uint256 timestamp);\r\n    event LogUpdated(uint256 id, string oldMessage, string newMessage);\r\n\r\n    // Fonction pour crer un log\r\n    function createLog(string memory _message) public {\r\n        require(bytes(_message).length > 0, \"Message cannot be empty\");\r\n        logs.push(Log(_message, msg.sender, block.timestamp));\r\n        emit LogCreated(logs.length - 1, _message, msg.sender, block.timestamp);\r\n    }\r\n\r\n    // Fonction pour rcuprer tous les logs\r\n    function getAllLogs() public view returns (Log[] memory) {\r\n        return logs;\r\n    }\r\n\r\n    // Fonction pour modifier un log existant\r\n    function updateLog(uint256 _logId, string memory _newMessage) public {\r\n        require(_logId < logs.length, \"Log does not exist\");\r\n        require(msg.sender == logs[_logId].author, \"Only the author can modify this log\");\r\n        require(bytes(_newMessage).length > 0, \"New message cannot be empty\");\r\n\r\n        string memory oldMessage = logs[_logId].message;\r\n        logs[_logId].message = _newMessage;\r\n\r\n        emit LogUpdated(_logId, oldMessage, _newMessage);\r\n    }\r\n}\r\n",
  "sourcePath": "C:\\Users\\maxim\\Desktop\\UTT\\Master\\GS16\\blockchain_project\\contracts\\Logs.sol",
  "compiler": {
    "name": "solc",
    "version": "0.8.0+commit.c7dfd78e.Emscripten.clang"
  },
  "schemaVersion": "3.4.16",
  "updatedAt": "2024-12-02T22:24:08.379Z",
  "networkType": "ethereum",
  "devdoc": {
    "kind": "dev",
    "methods": {},
    "version": 1
  },
  "userdoc": {
    "kind": "user",
    "methods": {},
    "version": 1
  }
}